{
  "_format": "hh-sol-artifact-1",
  "contractName": "FlashLoanArbitrage",
  "sourceName": "contracts/FlashLoanArbitrage.sol",
  "abi": [
    {
      "inputs": [
        {
          "internalType": "address",
          "name": "_addressProvider",
          "type": "address"
        }
      ],
      "stateMutability": "nonpayable",
      "type": "constructor"
    },
    {
      "inputs": [],
      "name": "ADDRESSES_PROVIDER",
      "outputs": [
        {
          "internalType": "contract IPoolAddressesProvider",
          "name": "",
          "type": "address"
        }
      ],
      "stateMutability": "view",
      "type": "function"
    },
    {
      "inputs": [],
      "name": "POOL",
      "outputs": [
        {
          "internalType": "contract IPool",
          "name": "",
          "type": "address"
        }
      ],
      "stateMutability": "view",
      "type": "function"
    },
    {
      "inputs": [],
      "name": "allowanceDai",
      "outputs": [
        {
          "internalType": "uint256",
          "name": "",
          "type": "uint256"
        }
      ],
      "stateMutability": "view",
      "type": "function"
    },
    {
      "inputs": [],
      "name": "allowanceUSDC",
      "outputs": [
        {
          "internalType": "uint256",
          "name": "",
          "type": "uint256"
        }
      ],
      "stateMutability": "view",
      "type": "function"
    },
    {
      "inputs": [
        {
          "internalType": "uint256",
          "name": "_amount",
          "type": "uint256"
        }
      ],
      "name": "approveDAI",
      "outputs": [
        {
          "internalType": "bool",
          "name": "",
          "type": "bool"
        }
      ],
      "stateMutability": "nonpayable",
      "type": "function"
    },
    {
      "inputs": [
        {
          "internalType": "uint256",
          "name": "_amount",
          "type": "uint256"
        }
      ],
      "name": "approveUSDC",
      "outputs": [
        {
          "internalType": "bool",
          "name": "",
          "type": "bool"
        }
      ],
      "stateMutability": "nonpayable",
      "type": "function"
    },
    {
      "inputs": [
        {
          "internalType": "address",
          "name": "asset",
          "type": "address"
        },
        {
          "internalType": "uint256",
          "name": "amount",
          "type": "uint256"
        },
        {
          "internalType": "uint256",
          "name": "premium",
          "type": "uint256"
        },
        {
          "internalType": "address",
          "name": "initiator",
          "type": "address"
        },
        {
          "internalType": "bytes",
          "name": "params",
          "type": "bytes"
        }
      ],
      "name": "executeOperation",
      "outputs": [
        {
          "internalType": "bool",
          "name": "",
          "type": "bool"
        }
      ],
      "stateMutability": "nonpayable",
      "type": "function"
    },
    {
      "inputs": [
        {
          "internalType": "address",
          "name": "_tokenAddress",
          "type": "address"
        }
      ],
      "name": "getBalance",
      "outputs": [
        {
          "internalType": "uint256",
          "name": "",
          "type": "uint256"
        }
      ],
      "stateMutability": "view",
      "type": "function"
    },
    {
      "inputs": [
        {
          "internalType": "address",
          "name": "_token",
          "type": "address"
        },
        {
          "internalType": "uint256",
          "name": "_amount",
          "type": "uint256"
        }
      ],
      "name": "requestFlashLoan",
      "outputs": [],
      "stateMutability": "nonpayable",
      "type": "function"
    },
    {
      "inputs": [
        {
          "internalType": "address",
          "name": "_tokenAddress",
          "type": "address"
        }
      ],
      "name": "withdraw",
      "outputs": [],
      "stateMutability": "nonpayable",
      "type": "function"
    },
    {
      "stateMutability": "payable",
      "type": "receive"
    }
  ],
  "bytecode": "0x61012060405273ff34b3d4aee8ddcd6f9afffb6fe49bd371b8a35773ffffffffffffffffffffffffffffffffffffffff1660c09073ffffffffffffffffffffffffffffffffffffffff168152507394a9d9ac8a22534e3faca9f4e7f2e2cf85d5e4c873ffffffffffffffffffffffffffffffffffffffff1660e09073ffffffffffffffffffffffffffffffffffffffff168152507384c18815572de8eb68a88ef51a9927c3fa6b75e473ffffffffffffffffffffffffffffffffffffffff166101009073ffffffffffffffffffffffffffffffffffffffff16815250348015620000e857600080fd5b506040516200173c3803806200173c83398181016040528101906200010e919062000364565b808073ffffffffffffffffffffffffffffffffffffffff1660808173ffffffffffffffffffffffffffffffffffffffff16815250508073ffffffffffffffffffffffffffffffffffffffff1663026b1d5f6040518163ffffffff1660e01b8152600401602060405180830381865afa1580156200018f573d6000803e3d6000fd5b505050506040513d601f19601f82011682018060405250810190620001b5919062000364565b73ffffffffffffffffffffffffffffffffffffffff1660a08173ffffffffffffffffffffffffffffffffffffffff168152505050336000806101000a81548173ffffffffffffffffffffffffffffffffffffffff021916908373ffffffffffffffffffffffffffffffffffffffff16021790555060c051600160006101000a81548173ffffffffffffffffffffffffffffffffffffffff021916908373ffffffffffffffffffffffffffffffffffffffff16021790555060e051600260006101000a81548173ffffffffffffffffffffffffffffffffffffffff021916908373ffffffffffffffffffffffffffffffffffffffff16021790555061010051600360006101000a81548173ffffffffffffffffffffffffffffffffffffffff021916908373ffffffffffffffffffffffffffffffffffffffff1602179055505062000396565b600080fd5b600073ffffffffffffffffffffffffffffffffffffffff82169050919050565b60006200032c82620002ff565b9050919050565b6200033e816200031f565b81146200034a57600080fd5b50565b6000815190506200035e8162000333565b92915050565b6000602082840312156200037d576200037c620002fa565b5b60006200038d848285016200034d565b91505092915050565b60805160a05160c05160e05161010051611344620003f860003960008181610805015281816108f3015281816109b70152610a8101526000505060005050600081816105a40152818161088e0152610b2a0152600061029501526113446000f3fe6080604052600436106100955760003560e01c80637970f920116100595780637970f9201461019a5780639787ea13146101c5578063babdd46614610202578063d54ba9541461022d578063f8b2cb4f146102565761009c565b80630542975c146100a15780631b11d0ff146100cc57806351cff8d9146101095780635f80a9cf146101325780637535d2461461016f5761009c565b3661009c57005b600080fd5b3480156100ad57600080fd5b506100b6610293565b6040516100c39190610cc6565b60405180910390f35b3480156100d857600080fd5b506100f360048036038101906100ee9190610dc4565b6102b7565b6040516101009190610e79565b60405180910390f35b34801561011557600080fd5b50610130600480360381019061012b9190610e94565b610634565b005b34801561013e57600080fd5b5061015960048036038101906101549190610ec1565b6107c3565b6040516101669190610e79565b60405180910390f35b34801561017b57600080fd5b5061018461088c565b6040516101919190610f0f565b60405180910390f35b3480156101a657600080fd5b506101af6108b0565b6040516101bc9190610f39565b60405180910390f35b3480156101d157600080fd5b506101ec60048036038101906101e79190610ec1565b610975565b6040516101f99190610e79565b60405180910390f35b34801561020e57600080fd5b50610217610a3e565b6040516102249190610f39565b60405180910390f35b34801561023957600080fd5b50610254600480360381019061024f9190610f54565b610b03565b005b34801561026257600080fd5b5061027d60048036038101906102789190610e94565b610bc4565b60405161028a9190610f39565b60405180910390f35b7f000000000000000000000000000000000000000000000000000000000000000081565b6000600360009054906101000a900473ffffffffffffffffffffffffffffffffffffffff1673ffffffffffffffffffffffffffffffffffffffff1663f688bcfb633b9aca006040518263ffffffff1660e01b81526004016103189190610fcf565b600060405180830381600087803b15801561033257600080fd5b505af1158015610346573d6000803e3d6000fd5b50505050600360009054906101000a900473ffffffffffffffffffffffffffffffffffffffff1673ffffffffffffffffffffffffffffffffffffffff1663365833e1600160009054906101000a900473ffffffffffffffffffffffffffffffffffffffff1673ffffffffffffffffffffffffffffffffffffffff166370a08231306040518263ffffffff1660e01b81526004016103e39190610ff9565b602060405180830381865afa158015610400573d6000803e3d6000fd5b505050506040513d601f19601f820116820180604052508101906104249190611029565b6040518263ffffffff1660e01b81526004016104409190610f39565b600060405180830381600087803b15801561045a57600080fd5b505af115801561046e573d6000803e3d6000fd5b50505050600360009054906101000a900473ffffffffffffffffffffffffffffffffffffffff1673ffffffffffffffffffffffffffffffffffffffff1663251545da6040518163ffffffff1660e01b8152600401600060405180830381600087803b1580156104dc57600080fd5b505af11580156104f0573d6000803e3d6000fd5b50505050600360009054906101000a900473ffffffffffffffffffffffffffffffffffffffff1673ffffffffffffffffffffffffffffffffffffffff1663156029916040518163ffffffff1660e01b8152600401600060405180830381600087803b15801561055e57600080fd5b505af1158015610572573d6000803e3d6000fd5b50505050600085876105849190611085565b90508773ffffffffffffffffffffffffffffffffffffffff1663095ea7b37f0000000000000000000000000000000000000000000000000000000000000000836040518363ffffffff1660e01b81526004016105e19291906110b9565b6020604051808303816000875af1158015610600573d6000803e3d6000fd5b505050506040513d601f19601f82011682018060405250810190610624919061110e565b5060019150509695505050505050565b60008054906101000a900473ffffffffffffffffffffffffffffffffffffffff1673ffffffffffffffffffffffffffffffffffffffff163373ffffffffffffffffffffffffffffffffffffffff16146106c2576040517f08c379a00000000000000000000000000000000000000000000000000000000081526004016106b9906111be565b60405180910390fd5b60008190508073ffffffffffffffffffffffffffffffffffffffff1663a9059cbb338373ffffffffffffffffffffffffffffffffffffffff166370a08231306040518263ffffffff1660e01b815260040161071d9190610ff9565b602060405180830381865afa15801561073a573d6000803e3d6000fd5b505050506040513d601f19601f8201168201806040525081019061075e9190611029565b6040518363ffffffff1660e01b815260040161077b9291906110b9565b6020604051808303816000875af115801561079a573d6000803e3d6000fd5b505050506040513d601f19601f820116820180604052508101906107be919061110e565b505050565b6000600260009054906101000a900473ffffffffffffffffffffffffffffffffffffffff1673ffffffffffffffffffffffffffffffffffffffff1663095ea7b37f0000000000000000000000000000000000000000000000000000000000000000846040518363ffffffff1660e01b81526004016108429291906110b9565b6020604051808303816000875af1158015610861573d6000803e3d6000fd5b505050506040513d601f19601f82011682018060405250810190610885919061110e565b9050919050565b7f000000000000000000000000000000000000000000000000000000000000000081565b6000600260009054906101000a900473ffffffffffffffffffffffffffffffffffffffff1673ffffffffffffffffffffffffffffffffffffffff1663dd62ed3e307f00000000000000000000000000000000000000000000000000000000000000006040518363ffffffff1660e01b815260040161092f9291906111de565b602060405180830381865afa15801561094c573d6000803e3d6000fd5b505050506040513d601f19601f820116820180604052508101906109709190611029565b905090565b6000600160009054906101000a900473ffffffffffffffffffffffffffffffffffffffff1673ffffffffffffffffffffffffffffffffffffffff1663095ea7b37f0000000000000000000000000000000000000000000000000000000000000000846040518363ffffffff1660e01b81526004016109f49291906110b9565b6020604051808303816000875af1158015610a13573d6000803e3d6000fd5b505050506040513d601f19601f82011682018060405250810190610a37919061110e565b9050919050565b6000600160009054906101000a900473ffffffffffffffffffffffffffffffffffffffff1673ffffffffffffffffffffffffffffffffffffffff1663dd62ed3e307f00000000000000000000000000000000000000000000000000000000000000006040518363ffffffff1660e01b8152600401610abd9291906111de565b602060405180830381865afa158015610ada573d6000803e3d6000fd5b505050506040513d601f19601f82011682018060405250810190610afe9190611029565b905090565b600030905060008390506000839050600060405180602001604052806000815250905060007f000000000000000000000000000000000000000000000000000000000000000073ffffffffffffffffffffffffffffffffffffffff166342b0b77c86868686866040518663ffffffff1660e01b8152600401610b899594939291906112b4565b600060405180830381600087803b158015610ba357600080fd5b505af1158015610bb7573d6000803e3d6000fd5b5050505050505050505050565b60008173ffffffffffffffffffffffffffffffffffffffff166370a08231306040518263ffffffff1660e01b8152600401610bff9190610ff9565b602060405180830381865afa158015610c1c573d6000803e3d6000fd5b505050506040513d601f19601f82011682018060405250810190610c409190611029565b9050919050565b600073ffffffffffffffffffffffffffffffffffffffff82169050919050565b6000819050919050565b6000610c8c610c87610c8284610c47565b610c67565b610c47565b9050919050565b6000610c9e82610c71565b9050919050565b6000610cb082610c93565b9050919050565b610cc081610ca5565b82525050565b6000602082019050610cdb6000830184610cb7565b92915050565b600080fd5b600080fd5b6000610cf682610c47565b9050919050565b610d0681610ceb565b8114610d1157600080fd5b50565b600081359050610d2381610cfd565b92915050565b6000819050919050565b610d3c81610d29565b8114610d4757600080fd5b50565b600081359050610d5981610d33565b92915050565b600080fd5b600080fd5b600080fd5b60008083601f840112610d8457610d83610d5f565b5b8235905067ffffffffffffffff811115610da157610da0610d64565b5b602083019150836001820283011115610dbd57610dbc610d69565b5b9250929050565b60008060008060008060a08789031215610de157610de0610ce1565b5b6000610def89828a01610d14565b9650506020610e0089828a01610d4a565b9550506040610e1189828a01610d4a565b9450506060610e2289828a01610d14565b935050608087013567ffffffffffffffff811115610e4357610e42610ce6565b5b610e4f89828a01610d6e565b92509250509295509295509295565b60008115159050919050565b610e7381610e5e565b82525050565b6000602082019050610e8e6000830184610e6a565b92915050565b600060208284031215610eaa57610ea9610ce1565b5b6000610eb884828501610d14565b91505092915050565b600060208284031215610ed757610ed6610ce1565b5b6000610ee584828501610d4a565b91505092915050565b6000610ef982610c93565b9050919050565b610f0981610eee565b82525050565b6000602082019050610f246000830184610f00565b92915050565b610f3381610d29565b82525050565b6000602082019050610f4e6000830184610f2a565b92915050565b60008060408385031215610f6b57610f6a610ce1565b5b6000610f7985828601610d14565b9250506020610f8a85828601610d4a565b9150509250929050565b6000819050919050565b6000610fb9610fb4610faf84610f94565b610c67565b610d29565b9050919050565b610fc981610f9e565b82525050565b6000602082019050610fe46000830184610fc0565b92915050565b610ff381610ceb565b82525050565b600060208201905061100e6000830184610fea565b92915050565b60008151905061102381610d33565b92915050565b60006020828403121561103f5761103e610ce1565b5b600061104d84828501611014565b91505092915050565b7f4e487b7100000000000000000000000000000000000000000000000000000000600052601160045260246000fd5b600061109082610d29565b915061109b83610d29565b92508282019050808211156110b3576110b2611056565b5b92915050565b60006040820190506110ce6000830185610fea565b6110db6020830184610f2a565b9392505050565b6110eb81610e5e565b81146110f657600080fd5b50565b600081519050611108816110e2565b92915050565b60006020828403121561112457611123610ce1565b5b6000611132848285016110f9565b91505092915050565b600082825260208201905092915050565b7f596f7520646f6e27742068617665207065726d697373696f6e2c206f6e6c792060008201527f6f776e65722063616e20706572666f726d207468697320616374696f6e000000602082015250565b60006111a8603d8361113b565b91506111b38261114c565b604082019050919050565b600060208201905081810360008301526111d78161119b565b9050919050565b60006040820190506111f36000830185610fea565b6112006020830184610fea565b9392505050565b600081519050919050565b600082825260208201905092915050565b60005b83811015611241578082015181840152602081019050611226565b60008484015250505050565b6000601f19601f8301169050919050565b600061126982611207565b6112738185611212565b9350611283818560208601611223565b61128c8161124d565b840191505092915050565b600061ffff82169050919050565b6112ae81611297565b82525050565b600060a0820190506112c96000830188610fea565b6112d66020830187610fea565b6112e36040830186610f2a565b81810360608301526112f5818561125e565b905061130460808301846112a5565b969550505050505056fea26469706673582212202ef189ebd19d3a2a8ee53816b31f48181d014e83cc5d169219c68480e7edfdb164736f6c63430008180033",
  "linkReferences": {},
  "deployedLinkReferences": {}
}